:020000040800F2
:10000000005000201D090008B9080008C1080008B8
:10001000C9080008D1080008D9080008000000003D
:10002000000000000000000000000000E1080008DF
:10003000ED08000800000000F908000805090008A4
:1000400065090008650900086509000865090008D8
:1000500065090008650900086509000865090008C8
:1000600065090008650900086509000865090008B8
:1000700065090008650900086509000865090008A8
:100080006509000865090008650900086509000898
:100090006509000865090008650900086509000888
:1000A0006509000865090008650900086509000878
:1000B0006509000865090008650900086509000868
:1000C0006509000865090008650900086509000858
:1000D0006509000865090008650900086509000848
:1000E00065090008650900086509000800000000AE
:1000F0000000000000000000000000000000000000
:0C01000000000000000000005FF808F1A3
:10010C0010B5054C237833B9044B13B10448AFF345
:10011C0000800123237010BD1C0000200000000093
:10012C00E019000808B5034B1BB103490348AFF3B2
:10013C00008008BD0000000020000020E01900082D
:10014C0080B586B006AF00F009FC00F0F9F800F0BD
:10015C0073F900F03BF900224FF480515C4800F039
:10016C00FEFF00F075FA00224FF40041594800F0F0
:10017C00F6FF00224FF40041574800F0F0FF002238
:10018C000821534800F0EBFF00221021504800F0EA
:10019C00E6FF002220214E4800F0E1FF4F4B049374
:1001AC004F4B03934F4B02934F4B01934F4B009389
:1001BC004FF40043484A0221474800F0D5F94C4B14
:1001CC0004934C4B03934C4B02934C4B01934C4B71
:1001DC00009308233E4A04213F4800F0C5F9494BDF
:1001EC000493494B0393494B0293494B0193494B5D
:1001FC0000931023364A0821374800F0B5F9374BE5
:10020C000493454B0393454B0293454B0193454B4C
:10021C00009320232E4A10212F4800F0A5F900F05E
:10022C00F5FB0246404B1B68D31AB3F5FA7F0DD38E
:10023C0000F0ECFB03463C4A13604FF40051254898
:10024C0000F0A5FF8021224800F0A1FF00F0DEFBAA
:10025C000246364B1B68D31AB3F5C87F09D300F09E
:10026C00D5FB0346314A13604FF48041184800F027
:10027C008EFF2F4B1B78012B10D101224FF4805194
:10028C00134800F06CFF2B4B01221A7000F0BEFBE0
:10029C000346294A1360264B00221A70254B1B7803
:1002AC00012B7FF47BAF00F0B1FB0246224B1B68A5
:1002BC00D21A224B1B689A42FFF470AF00224FF403
:1002CC008051034800F04BFF1A4B00221A7065E76F
:1002DC00000C014000100140000801406C0000209F
:1002EC007800002009000020080000206000002099
:1002FC00700000207C0000200B0000200A00002071
:10030C006100002074000020800000200D000020FF
:10031C000C00002062000020840000200F00002050
:10032C000E00002063000020880000208C000020BC
:10033C0064000020650000206800002004000020FC
:10034C0080B590B000AF07F11803282200211846A1
:10035C0001F014FB3B1D00221A605A609A60DA60AF
:10036C001A610123BB614FF48033FB6100233B62B4
:10037C000123BB6202237B634FF48033BB634FF4D6
:10038C00E013FB6307F11803184600F019FF03464E
:10039C00002B01D000F006FA0F237B600223BB6018
:1003AC000023FB604FF480633B6100237B613B1DAA
:1003BC000221184601F086F90346002B01D000F00B
:1003CC00F1F900BF4037BD4680BD000080B500AFDD
:1003DC00174B184A1A60164B04225A60144B002211
:1003EC009A60134B0022DA60114B4FF460221A61B1
:1003FC000F4B4FF480125A610D4B00221A760C4BA6
:10040C0001225A760A4B00229A76094B0122DA769F
:10041C00074B00221A77064B00225A77044800F04B
:10042C0023FB0346002B01D000F0BCF900BF80BDBC
:10043C00380000200064004080B588B000AF07F1A0
:10044C00100300221A605A609A60DA60424B9B6972
:10045C00414A43F0100393613F4B9B6903F0100337
:10046C00FB60FB683C4B9B693B4A43F02003936168
:10047C00394B9B6903F02003BB60BB68364B9B690F
:10048C00354A43F004039361334B9B6903F0040337
:10049C007B607B68304B9B692F4A43F00803936168
:1004AC002D4B9B6903F008033B603B6801224FF422
:1004BC0020412A4800F053FE00224DF23801284812
:1004CC0000F04DFE01224FF40351254800F047FE89
:1004DC0000224FF40041234800F041FE4FF420432A
:1004EC003B6101237B610023BB610223FB6107F1AC
:1004FC0010031946194800F097FC1E233B6100239A
:10050C007B610123BB6107F110031946154800F00C
:10051C008BFC4FF2F8033B6101237B610023BB6131
:10052C000223FB6107F1100319460D4800F07CFC17
:10053C004FF400433B6101237B610023BB61022329
:10054C00FB6107F110031946064800F06DFC00BF73
:10055C002037BD4680BD00BF001002400010014096
:10056C00000C01400008014080B586B000AFF86077
:10057C007A601A460B467B8113463B817B89194670
:10058C00F86800F0D5FD0346FB757B6A1B78FA7D95
:10059C009A4204D000F03AFA0246FB6A1A6000F064
:1005AC0035FA0246FB6A1B68D31A1D2B2ED9BB6A7F
:1005BC001B78FA7D9A4229D0BB6AFA7D1A70BB6A05
:1005CC001B78002B22D13B6A1B78002B0CBF01231C
:1005DC000023DBB21A463B6A1A703B6A1B78002B6D
:1005EC0014BF01230023DBB21A463B8919467868F5
:1005FC0000F0B5FD3B6A1B78012B07D100F006FA21
:10060C0002463B6B1A60104B01221A703B6A1B7836
:10061C00012B12D100F0FAF902463B6B1B68D21A7F
:10062C000A4B1B689A4208D33B6A00221A703B891A
:10063C0000221946786800F092FD7B6AFA7D1A70E8
:10064C0000BF1837BD4680BD6400002000000020AC
:10065C0080B582B000AF00F07BF800224FF400416F
:10066C00244800F07CFD40F2DC5000F0D9F9002267
:10067C004FF48041204800F072FD002280211E487A
:10068C0000F06DFD40F2DC5000F0CAF900224FF48E
:10069C008041194800F063FD00224021164800F00B
:1006AC005EFD40F2DC5000F0BBF900224FF400512B
:1006BC00114800F054FD40F2DC5000F0B1F900F0AC
:1006CC0047F80023FB710CE000F018F8962000F0BE
:1006DC00A7F900F03DF8962000F0A2F9FB79013360
:1006EC00FB71FB791D2BEFD900BF00BF0837BD464E
:1006FC0080BD00BF00100140000C014080B500AF70
:10070C0000224FF40041104800F029FD0022802106
:10071C000E4800F024FD00224FF480410B4800F0FD
:10072C001EFD00224FF48041084800F018FD002205
:10073C004021064800F013FD00224FF400510348FD
:10074C0000F00DFD00BF80BD00100140000C014009
:10075C0080B500AF01224FF40041104800F0FFFCBF
:10076C00012280210E4800F0FAFC01224FF4804156
:10077C000B4800F0F4FC01224FF48041084800F0D3
:10078C00EEFC01224FF40051054800F0E8FC012278
:10079C004021034800F0E3FC00BF80BD0010014085
:1007AC00000C014080B400AF72B600BF00BFFDE783
:1007BC0080B485B000AF154B9B69144A43F001031C
:1007CC009361124B9B6903F00103BB60BB680F4B39
:1007DC00DB690E4A43F08053D3610C4BDB6903F0A9
:1007EC0080537B607B680A4B5B68FB60FB6823F083
:1007FC00E063FB60FB6843F00073FB60044AFB683A
:10080C00536000BF1437BD4680BC704700100240D7
:10081C000000014080B588B000AF786007F110038C
:10082C0000221A605A609A60DA607B681B681C4A66
:10083C00934231D11B4BDB691A4A43F00073D361ED
:10084C00184BDB6903F00073FB60FB68154B9B696D
:10085C00144A43F004039361124B9B6903F00403A5
:10086C00BB60BB684FF400633B6100237B610023DA
:10087C00BB6107F1100319460B4800F0D5FA4FF491
:10088C0080533B6102237B610323FB6107F110035F
:10089C001946054800F0C8FA00BF2037BD4680BD98
:1008AC0000640040001002400008014080B400AF1A
:1008BC0000BFFDE780B400AF00BFFDE780B400AF20
:1008CC0000BFFDE780B400AF00BFFDE780B400AF10
:1008DC0000BFFDE780B400AF00BFBD4680BC7047D1
:1008EC0080B400AF00BFBD4680BC704780B400AF81
:1008FC0000BFBD4680BC704780B500AF00F074F8F7
:10090C0000BF80BD80B400AF00BFBD4680BC704747
:10091C00FFF7F8FF0B480C490C4A002302E0D458AF
:10092C00C4500433C4188C42F9D3094A094C00232F
:10093C0001E013600432A242FBD301F027F8FFF769
:10094C00FFFB7047000000201C000020241A000848
:10095C001C00002094000020FEE7000080B500AFD2
:10096C00084B1B68074A43F010031360032000F088
:10097C0027FA0F2000F008F8FFF71AFF002318469B
:10098C0080BD00BF0020024080B582B000AF78600F
:10099C00124B1A68124B1B7819464FF47A73B3FB3F
:1009AC00F1F3B2FBF3F3184600F031FA0346002BD7
:1009BC0001D001230EE07B680F2B0AD80022796846
:1009CC004FF0FF3000F007FA064A7B6813600023F3
:1009DC0000E0012318460837BD4680BD10000020FA
:1009EC00180000201400002080B400AF054B1B78C9
:1009FC001A46054B1B681344034A136000BFBD46DF
:100A0C0080BC7047180000209000002080B400AF1C
:100A1C00024B1B681846BD4680BC704790000020F6
:100A2C0080B584B000AF7860FFF7F0FFB8607B68EA
:100A3C00FB60FB68B3F1FF3F05D00A4B1B781A46ED
:100A4C00FB681344FB6000BFFFF7E0FF0246BB6886
:100A5C00D31AFA689A42F7D800BF00BF1037BD46C8
:100A6C0080BD00BF1800002080B584B000AF786056
:100A7C007B68002B01D10123EDE07B6893F82030DB
:100A8C00DBB2002B02D17868FFF7C4FE7B681B68D1
:100A9C001A687B681B6842F001021A60FFF7B6FF08
:100AAC00F86012E0FFF7B2FF0246FB68D31A0A2B7C
:100ABC000BD97B685B6A43F400327B685A627B68B3
:100ACC00052283F820200123C5E07B681B685B6846
:100ADC0003F00103002BE5D07B681B681A687B6868
:100AEC001B6822F002021A60FFF790FFF86012E018
:100AFC00FFF78CFF0246FB68D31A0A2B0BD97B68D5
:100B0C005B6A43F400327B685A627B68052283F887
:100B1C00202001239FE07B681B685B6803F00203C5
:100B2C00002BE5D17B681B7E012B08D17B681B68F1
:100B3C001A687B681B6842F080021A6007E07B68C9
:100B4C001B681A687B681B6822F080021A607B683D
:100B5C005B7E012B08D17B681B681A687B681B685D
:100B6C0042F040021A6007E07B681B681A687B68D9
:100B7C001B6822F040021A607B689B7E012B08D117
:100B8C007B681B681A687B681B6842F020021A603D
:100B9C0007E07B681B681A687B681B6822F02002E0
:100BAC001A607B68DB7E012B08D17B681B681A6896
:100BBC007B681B6822F010021A6007E07B681B68D8
:100BCC001A687B681B6842F010021A607B681B7FF6
:100BDC00012B08D17B681B681A687B681B6842F084
:100BEC0008021A6007E07B681B681A687B681B6840
:100BFC0022F008021A607B685B7F012B08D17B68AE
:100C0C001B681A687B681B6842F004021A6007E0D4
:100C1C007B681B681A687B681B6822F004021A60E8
:100C2C007B689A687B68DB681A437B681B691A438C
:100C3C007B685B6942EA03017B685B685A1E7B68D0
:100C4C001B680A43DA617B6800225A627B680122C6
:100C5C0083F82020002318461037BD4680BD0000C5
:100C6C0080B485B000AF78607B6803F00703FB604D
:100C7C000C4BDB68BB60BA684FF6FF031340BB60DC
:100C8C00FB681A02BB68134343F0BF6343F40033A1
:100C9C00BB60044ABB68D36000BF1437BD4680BC40
:100CAC00704700BF00ED00E080B400AF044BDB6880
:100CBC001B0A03F007031846BD4680BC704700BFF3
:100CCC0000ED00E080B483B000AF03463960FB71E7
:100CDC0097F90730002B0ADB3B68DAB20C4997F91D
:100CEC0007301201D2B20B4483F800230AE03B68B0
:100CFC00DAB20849FB7903F00F03043B1201D2B2BC
:100D0C000B441A7600BF0C37BD4680BC704700BF41
:100D1C0000E100E000ED00E080B489B000AFF860C5
:100D2C00B9607A60FB6803F00703FB61FB69C3F1F0
:100D3C000703042B28BF0423BB61FB690433062B78
:100D4C0002D9FB69033B00E000237B614FF0FF32CB
:100D5C00BB6902FA03F3DA43BB681A407B699A4019
:100D6C004FF0FF317B6901FA03F3D9437B680B40E9
:100D7C00134318462437BD4680BC704780B582B0FB
:100D8C0000AF78607B68013BB3F1807F01D3012316
:100D9C000FE00A4A7B68013B53600F214FF0FF3094
:100DAC00FFF790FF054B00229A60044B07221A6054
:100DBC00002318460837BD4680BD00BF10E000E098
:100DCC0080B582B000AF78607868FFF749FF00BF4C
:100DDC000837BD4680BD80B586B000AF0346B9600C
:100DEC007A60FB7300237B61FFF75EFF78617A68A2
:100DFC00B9687869FFF790FF024697F90F301146F2
:100E0C001846FFF75FFF00BF1837BD4680BD80B5A1
:100E1C0082B000AF78607868FFF7B0FF03461846E1
:100E2C000837BD4680BD000080B48BB000AF786041
:100E3C00396000237B6200233B6269E101227B6AFB
:100E4C0002FA03F3FB613B681B68FA691340BB6150
:100E5C00BA69FB699A4240F058813B685B689A4AD0
:100E6C0093425ED0984A934275D8984A934258D090
:100E7C00964A93426FD8964A934252D0944A9342E0
:100E8C0069D8944A93424CD0924A934263D8924A7E
:100E9C00934246D0904A93425DD8122B2AD8122BFB
:100EAC0059D801A252F823F02F0F0008090F00089F
:100EBC001B0F00085D0F0008630F0008630F00088C
:100ECC00630F0008630F0008630F0008630F00082E
:100EDC00630F0008630F0008630F0008630F00081E
:100EEC00630F0008630F0008630F0008110F000860
:100EFC00250F0008794A934213D02CE03B68DB683D
:100F0C003B6229E03B68DB6804333B6224E03B68CE
:100F1C00DB6808333B621FE03B68DB680C333B62E9
:100F2C001AE03B689B68002B02D104233B6213E060
:100F3C003B689B68012B05D108233B627B68FA69EF
:100F4C001A6109E008233B627B68FA695A6103E085
:100F5C0000233B6200E000BFBB69FF2B01D87B681C
:100F6C0001E07B6804337B61BB69FF2B02D87B6A91
:100F7C009B0002E07B6A083B9B003B617B691A6823
:100F8C000F213B6901FA03F3DB431A40396A3B69D1
:100F9C0001FA03F31A437B691A603B685B6803F040
:100FAC008053002B00F0B1804D4B9B694C4A43F0B1
:100FBC00010393614A4B9B6903F00103BB60BB685F
:100FCC00484A7B6A9B08023352F82330FB607B6AE9
:100FDC0003F003039B000F2202FA03F3DB43FA68CE
:100FEC001340FB607B68404A934213D07B683F4AB6
:100FFC0093420DD07B683E4A934207D07B683D4AB2
:10100C00934201D1032306E0042304E0022302E00F
:10101C00012300E000237A6A02F00302920093405D
:10102C00FA681343FB602F497B6A9B080233FA680A
:10103C0041F823203B685B6803F48013002B06D037
:10104C002D4B9A682C49BB6913438B6006E02A4BE5
:10105C009A68BB69DB43284913408B603B685B682B
:10106C0003F40013002B06D0234BDA682249BB692A
:10107C001343CB6006E0204BDA68BB69DB431E49A7
:10108C001340CB603B685B6803F40033002B06D045
:10109C00194B5A681849BB6913434B6006E0164B51
:1010AC005A68BB69DB43144913404B603B685B686F
:1010BC0003F48033002B21D00F4B1A680E49BB6907
:1010CC0013430B6021E000BF000032100000311010
:1010DC00000022100000211000001210000011105E
:1010EC00001002400000014000080140000C0140CB
:1010FC000010014000140140000401400B4B1A6821
:10110C00BB69DB43094913400B607B6A01337B628B
:10111C003B681A687B6A22FA03F3002B7FF48EAECD
:10112C0000BF00BF2C37BD4680BC70470004014097
:10113C0080B485B000AF78600B467B807B689A6882
:10114C007B881340002B02D00123FB7301E00023AA
:10115C00FB73FB7B18461437BD4680BC704780B4CC
:10116C0083B000AF78600B467B8013467B707B7836
:10117C00002B03D07A887B681A6103E07B881A0401
:10118C007B681A6100BF0C37BD4680BC704780B4C9
:10119C0085B000AF78600B467B807B68DB68FB60BA
:1011AC007A88FB6813401A04FB68D9437B880B4090
:1011BC001A437B681A6100BF1437BD4680BC704768
:1011CC0080B586B000AF78607B68002B01D101231D
:1011DC0072E27B681B6803F00103002B00F0878030
:1011EC00924B5B6803F00C03042B0CD08F4B5B68A9
:1011FC0003F00C03082B12D18C4B5B6803F4803387
:10120C00B3F5803F0BD1894B1B6803F40033002BE3
:10121C006CD07B685B68002B68D101234CE27B6847
:10122C005B68B3F5803F06D1804B1B687F4A43F463
:10123C00803313602EE07B685B68002B0CD17B4BFA
:10124C001B687A4A23F480331360784B1B68774A07
:10125C0023F4802313601DE07B685B68B3F5A02F3B
:10126C000CD1724B1B68714A43F4802313606F4B93
:10127C001B686E4A43F4803313600BE06B4B1B68A6
:10128C006A4A23F480331360684B1B68674A23F463
:10129C00802313607B685B68002B13D0FFF7B6FBD1
:1012AC00386108E0FFF7B2FB02463B69D31A642BA6
:1012BC0001D9032300E25D4B1B6803F40033002BC0
:1012CC00F0D014E0FFF7A2FB386108E0FFF79EFBBB
:1012DC0002463B69D31A642B01D90323ECE1534B2F
:1012EC001B6803F40033002BF0D100E000BF7B68D7
:1012FC001B6803F00203002B63D04C4B5B6803F0BC
:10130C000C03002B0BD0494B5B6803F00C03082B30
:10131C001CD1464B5B6803F48033002B16D1434B36
:10132C001B6803F00203002B05D07B681B69012BA3
:10133C0001D00123C0E13D4B1B6823F0F8027B6810
:10134C005B69DB00394913430B603AE07B681B692E
:10135C00002B20D0364B01221A60FFF757FB386167
:10136C0008E0FFF753FB02463B69D31A022B01D965
:10137C000323A1E12D4B1B6803F00203002BF0D0DB
:10138C002A4B1B6823F0F8027B685B69DB0027495A
:10139C0013430B6015E0264B00221A60FFF736FB57
:1013AC00386108E0FFF732FB02463B69D31A022B87
:1013BC0001D9032380E11D4B1B6803F00203002BB2
:1013CC00F0D17B681B6803F00803002B3AD07B68D4
:1013DC009B69002B19D0174B01221A60FFF716FBE3
:1013EC00386108E0FFF712FB02463B69D31A022B67
:1013FC0001D9032360E10D4B5B6A03F00203002B60
:10140C00F0D0012000F09CFA1CE00A4B00221A607C
:10141C00FFF7FCFA38610FE0FFF7F8FA02463B6978
:10142C00D31A022B08D9032346E100BF0010024057
:10143C000000424280044242924B5B6A03F002037A
:10144C00002BE9D17B681B6803F00403002B00F030
:10145C00A6800023FB758B4BDB6903F08053002BBC
:10146C000DD1884BDB69874A43F08053D361854BA0
:10147C00DB6903F08053BB60BB680123FB75824BB7
:10148C001B6803F48073002B18D17F4B1B687E4ABA
:10149C0043F480731360FFF7B9FA386108E0FFF783
:1014AC00B5FA02463B69D31A642B01D9032303E135
:1014BC00754B1B6803F48073002BF0D07B68DB68E2
:1014CC00012B06D16F4B1B6A6E4A43F0010313626A
:1014DC002DE07B68DB68002B0CD16A4B1B6A694AD8
:1014EC0023F001031362674B1B6A664A23F0040363
:1014FC0013621CE07B68DB68052B0CD1614B1B6A0B
:10150C00604A43F0040313625E4B1B6A5D4A43F06E
:10151C00010313620BE05B4B1B6A5A4A23F0010375
:10152C001362584B1B6A574A23F0040313627B68FF
:10153C00DB68002B15D0FFF769FA38610AE0FFF77A
:10154C0065FA02463B69D31A41F28832934201D9BB
:10155C000323B1E04B4B1B6A03F00203002BEED0CC
:10156C0014E0FFF753FA38610AE0FFF74FFA02462E
:10157C003B69D31A41F28832934201D903239BE091
:10158C00404B1B6A03F00203002BEED1FB7D012BB9
:10159C0005D13C4BDB693B4A23F08053D3617B681C
:1015AC00DB69002B00F08780364B5B6803F00C0383
:1015BC00082B61D07B68DB69022B46D1334B0022B0
:1015CC001A60FFF723FA386108E0FFF71FFA0246AA
:1015DC003B69D31A022B01D903236DE0294B1B68FD
:1015EC0003F00073002BF0D17B681B6AB3F5803FCE
:1015FC0008D1244B5B6823F400327B689B6821493B
:10160C0013434B601F4B5B6823F474127B68196A9D
:10161C007B685B6A0B431B4913434B601B4B0122DA
:10162C001A60FFF7F3F9386108E0FFF7EFF90246AB
:10163C003B69D31A022B01D903233DE0114B1B68E4
:10164C0003F00073002BF0D035E0104B00221A6031
:10165C00FFF7DCF9386108E0FFF7D8F902463B697F
:10166C00D31A022B01D9032326E0064B1B6803F087
:10167C000073002BF0D11EE07B68DB69012B07D1D6
:10168C00012319E00010024000700040600042424B
:10169C000B4B5B68FB60FB6803F480327B681B6A56
:1016AC009A4206D1FB6803F470127B685B6A9A421B
:1016BC0001D0012300E0002318461837BD4680BD39
:1016CC000010024080B584B000AF786039607B6850
:1016DC00002B01D10123D0E06A4B1B6803F00703F8
:1016EC003A689A4210D9674B1B6823F00702654988
:1016FC003B6813430B60634B1B6803F007033A68AA
:10170C009A4201D00123B8E07B681B6803F0020306
:10171C00002B20D07B681B6803F00403002B05D042
:10172C00594B5B68584A43F4E06353607B681B6811
:10173C0003F00803002B05D0534B5B68524A43F46B
:10174C0060535360504B5B6823F0F0027B689B68DE
:10175C004D4913434B607B681B6803F00103002B5E
:10176C0040D07B685B68012B07D1474B1B6803F4A7
:10177C000033002B15D101237FE07B685B68022BC3
:10178C0007D1414B1B6803F00073002B09D10123D7
:10179C0073E03D4B1B6803F00203002B01D10123C6
:1017AC006BE0394B5B6823F003027B685B6836495E
:1017BC0013434B60FFF72AF9F8600AE0FFF726F9AC
:1017CC000246FB68D31A41F28832934201D90323B3
:1017DC0053E02D4B5B6803F00C027B685B689B004D
:1017EC009A42EBD1274B1B6803F007033A689A42E5
:1017FC0010D2244B1B6823F0070222493B68134389
:10180C000B60204B1B6803F007033A689A4201D027
:10181C00012332E07B681B6803F00403002B08D023
:10182C00194B5B6823F4E0627B68DB681649134351
:10183C004B607B681B6803F00803002B09D0124B2C
:10184C005B6823F460527B681B69DB000E49134311
:10185C004B6000F021F802460B4B5B681B0903F050
:10186C000F030A49CB5C22FA03F3094A1360094BB4
:10187C001B681846FFF788F8002318461037BD463A
:10188C0080BD00BF0020024000100240F819000883
:10189C00100000201400002080B487B000AF00239B
:1018AC00FB600023BB6000237B6100237B60002373
:1018BC003B611E4B5B68FB60FB6803F00C03042B65
:1018CC0002D0082B03D027E0194B3B6127E0FB68C3
:1018DC009B0C03F00F03174AD35C7B60FB6803F48B
:1018EC008033002B10D0114B5B685B0C03F00103B1
:1018FC00114AD35CBB607B680D4A03FB02F2BB68E8
:10190C00B2FBF3F37B6104E07B680C4A02FB03F34C
:10191C007B617B693B6102E0054B3B6100BF3B692E
:10192C0018461C37BD4680BC704700BF00100240F3
:10193C0000127A00081A0008181A000800093D0065
:10194C0080B485B000AF78600A4B1B680A4AA2FBD2
:10195C0003235B0A7A6802FB03F3FB6000BFFB689E
:10196C005A1EFA60002BF9D100BF00BF1437BD46D8
:10197C0080BC704710000020D34D62100346024417
:10198C00934200D1704703F8011BF9E770B50026AC
:10199C000C4D0D4B5B1B9C10A64209D1002600F090
:1019AC0019F80A4D0A4B5B1B9C10A64205D170BD61
:1019BC0055F8043B98470136EEE755F8043B984739
:1019CC000136F2E71C1A00081C1A00081C1A000841
:1019DC00201A0008F8B500BFF8BC08BC9E4670473A
:0C19EC00F8B500BFF8BC08BC9E46704770
:1019F80000000000000000000102030406070809B7
:101A080002030405060708090A0B0C0D0E0F101037
:041A180001020000C7
:041A1C00310100088C
:041A20000D010008AC
:101A2400C0D40100A00F0000010101010101010166
:0C1A340000127A00100000000100000009
:040000050800091DC9
:00000001FF
